:020000040800F2
:10000000780D0020D5060008C5020008C7020008C8
:10001000CB020008CF020008D30200080000000055
:10002000000000000000000000000000D7020008EF
:10003000D902000800000000DB020008DD02000811
:10004000EF060008EF060008EF060008EF060008BC
:10005000EF060008EF060008EF060008EF060008AC
:10006000EF060008EF060008EF060008EF0600089C
:10007000EF060008EF060008EF060008EF0600088C
:10008000EF060008EF060008EF060008EF0600087C
:10009000C9870008EF060008EF060008EF06000811
:1000A000EF060008EF060008EF060008EF0600085C
:1000B000EF060008E9890008EF060008EF060008CF
:1000C000EF060008EF060008EF060008EF0600083C
:1000D000EF06000849060008EF060008EF060008D2
:1000E000EF060008EF060008EF060008EF0600081C
:1000F000EF060008EF060008EF060008EF0600080C
:10010000EF060008EF060008EF060008EF060008FB
:10011000EF060008EF060008EF060008EF060008EB
:10012000EF060008EF060008EF060008EF060008DB
:1001300000F002F800F065F80AA090E8000C824494
:100140008344AAF10107DA4501D100F05AF8AFF271
:10015000090EBAE80F0013F0010F18BFFB1A43F0A5
:1001600001031847408E0000608E00000A444FF0E3
:10017000000C10F8013B13F0070408BF10F8014B06
:100180001D1108BF10F8015B641E05D010F8016B4B
:10019000641E01F8016BF9D113F0080F1EBF10F8AF
:1001A000014BAD1C0C1B09D16D1E58BF01F801CBD2
:1001B000FAD505E014F8016B01F8016B6D1EF9D555
:1001C0009142D6D37047000000230024002500266A
:1001D000103A28BF78C1FBD8520728BF30C148BFAA
:1001E0000B607047642908F08784782908F0C08480
:1001F000732908F0C985002070471FB51FBD10B5D1
:1002000010BD08F025FE1146FFF7F7FF00F008F8D3
:1002100008F043FE03B4FFF7F2FF03BC00F0BAF9A5
:1002200086B04FF4A06000F075FA00F049F94FF481
:10023000E13000F0BDF948224FF4FA611B4808F0A4
:1002400097FB08F0C1FB08F088FA0121184807F075
:10025000A4FF0021164807F038FF0221144807F0D8
:1002600034FF0521124807F030FF00BF04240020AE
:10027000059003208DF814008DF815008DF81600F8
:100280008DF817000BA10EA008F0CCFB002005A9EB
:1002900005220346CDE90042CDE9021046F2600294
:1002A0000221034807F069FB00BFFEE7000400409D
:1002B00050030020D7BCB1B8CAD5BCAF00000000C5
:1002C00025730000704700BFFEE700BFFEE700BFD8
:1002D000FEE700BFFEE770477047704770470000B9
:1002E0000CB50020019000906C48006840F480300C
:1002F0006A49086000BF6948006800F40030009057
:100300000198401C0190009818B90198B0F5A06FB1
:10031000F1D16248006800F4003010B10120009073
:1003200001E0002000900098012843D15C4800685B
:1003300040F010005A4908600846006820F00300A9
:1003400008600846006840F00200086053484068B2
:10035000524948600846406848600846406840F492
:10036000806048600846406820F47C104860084679
:10037000406840F4E81048600846006840F080702B
:10038000086000BF4548006800F000700028F9D000
:100390004248406820F003004049486008464068F1
:1003A00040F00200486000BF3C48406800F00C008C
:1003B0000828F9D10CBD10B5FFF792FF10BD10B59C
:1003C0003648006840F0010034490860084640683B
:1003D00034490840314948600846006832490840BD
:1003E0002E4908600846006820F48020086008460E
:1003F000406820F4FE0048604FF41F008860FFF75B
:10040000DAFF4FF000602949086010BD10B50021E7
:1004100000200022214B5B6803F00C0121B104296C
:1004200006D0082928D107E0214B224C236027E081
:100430001F4B204C236023E0184B5B6803F47010C3
:10044000164B5B6803F48032022303EB904022B921
:10045000194B4343174C23600DE0104B5B6803F4CA
:10046000003323B1144B4343124C236003E0104B81
:100470004343104C236003E00D4B0E4C236000BF40
:1004800000BF064B5B68C3F303130C4CE15C094BE4
:100490001B68CB40074C236010BD000000100240D9
:1004A000002002400000FFF8FFFFF6FE08ED00E02C
:1004B00000127A000000002000093D000400002026
:1004C00010B56FF0040000F074F92E4800682E4952
:1004D000B0FBF1F02D4908700846007800EB4001B0
:1004E000C1EBC0104FF6FF7101EAC0002849088037
:1004F00010BD0146254A12784A434FF0E0235A6165
:1005000000229A611A46126942F001021A6100BF84
:100510004FF0E022106900F001021AB100F48032BD
:10052000002AF5D04FF0E022126922F001024FF0CC
:10053000E0231A6100229A6170470146144A12882A
:100540004A434FF0E0235A6100229A611A46126929
:1005500042F001021A6100BF4FF0E022106900F082
:1005600001021AB100F48032002AF5D04FF0E022E7
:10057000126922F001024FF0E0231A6100229A6111
:10058000704700000000002000127A0014000020D4
:100590001600002000BF704700BF4A4A128802F0D0
:1005A0004002002AF9D0C2B2464B1B1D1A80704788
:1005B00010B586B00446012144F2040000F034FC7A
:1005C0004FF40070ADF8140003208DF816001820C9
:1005D0008DF8170005A93C4800F06AF94FF48060D7
:1005E000ADF8140004208DF8170005A9364800F076
:1005F0005FF925208DF8000003208DF801008DF8AB
:10060000020001208DF80300684600F088F801948C
:100610000020ADF80800ADF80A00ADF80C00ADF808
:1006200010000C20ADF80E0001A9264801F09BF93E
:10063000012240F22551234801F02DFA01212148E1
:1006400001F01DFA06B010BD10B540F225511D484D
:1006500001F006FB10B31B4801F082FAC4B21B483C
:10066000008800F40040C8B91848008800F48040B1
:1006700060B10A2C03D000201449088020E0134800
:10068000008840F400401149088019E00D2C06D183
:100690000E48008840F480400C49088010E00B4868
:1006A0000088C0F30D000A490C5408480088401C1B
:1006B0000649088008460088C72801DD0020088018
:1006C00010BD000000380140000801401C0000205F
:1006D000900500200948804709480047FEE7FEE7EB
:1006E000FEE7FEE7FEE7FEE7FEE7FEE7FEE7FEE7E2
:1006F00004480549054A064B70470000BF0300083F
:100700003101000878070020780D002078090020CA
:100710007809002031490143314A1160704770B5B2
:10072000002100230F22C47804B32D4C246804F464
:10073000E064C4F5E064210AC1F10403CA404478CE
:1007400004FA03F18478144021430901254C06780A
:10075000A155047804F01F050124AC4005786D1103
:10076000AD0005F1E025C5F8004109E0047804F08A
:100770001F050124AC401C4D0678761145F8264033
:1007800070BD1A4A0A400243154B1B1F1A6070477E
:1007900039B1134A121D12680243114B1B1D1A6016
:1007A00006E00F4A121D126882430D4B1B1D1A6092
:1007B0007047042808D14FF0E021096941F0040195
:1007C0004FF0E022116107E04FF0E021096921F0CC
:1007D00004014FF0E0221161704700000000FA05AB
:1007E0000CED00E000E400E080E100E080FFFF1F8E
:1007F00010B50446CC48844208D10121042000F001
:100800002DFB0021042000F029FB46E0C74884426C
:1008100008D10121082000F021FB0021082000F070
:100820001DFB3AE0C248844208D10121102000F0AB
:1008300015FB0021102000F011FB2EE0BD48844282
:1008400008D10121202000F009FB0021202000F028
:1008500005FB22E0B848844208D10121402000F085
:10086000FDFA0021402000F0F9FA16E0B348844276
:1008700008D10121802000F0F1FA0021802000F051
:10088000EDFA0AE0AE48844207D10121801500F05C
:10089000E5FA0021A01500F0E1FA10BD10B5012124
:1008A000084600F0DBFA0021012000F0D7FA10BD65
:1008B0002DE9F041024600250026002000230024F7
:1008C000002791F803C00CF00F0591F803C00CF05D
:1008D000100CBCF1000F03D091F802C04CEA0505E2
:1008E00091F800C0BCF1000F31D0146800202BE05B
:1008F0004FF0010C0CFA00F3B1F800C00CEA03064B
:100900009E4220D183004FF00F0C0CFA03F7BC433A
:1009100005FA03FC4CEA040491F803C0BCF1280F6B
:1009200006D14FF0010C0CFA00FCC2F814C00AE02A
:1009300091F803C0BCF1480F05D14FF0010C0CFA3F
:1009400000FCC2F810C0401C0828D1D31460B1F8D4
:1009500000C0BCF1FF0F34DD546800202EE000F130
:10096000080C4FF0010808FA0CF3B1F800C00CEACB
:1009700003069E4221D183004FF00F0C0CFA03F7BF
:10098000BC4305FA03FC4CEA040491F803C0BCF133
:10099000280F05D100F1080C08FA0CF8C2F81480F1
:1009A00091F803C0BCF1480F07D100F1080C4FF0DB
:1009B000010808FA0CF8C2F81080401C0828CED3B1
:1009C0005460BDE8F0814FF6FF7101800221817013
:1009D0000421C17070470246002093680B400BB1A0
:1009E000012000E0002070470146886880B270470F
:1009F00002460020D3680B400BB1012000E000202C
:100A000070470146C86880B2704701617047416114
:100A100070470AB1016100E041617047C1607047F1
:100A20004FF480320A438261816182618269826906
:100A3000704702460020434B18684FF680731840F9
:100A400040EA021008433F4B186070473E49C861B6
:100A50007047F0B50A46002300240021002500F06D
:100A60000046B6F1004F02D1364EF16901E0354E35
:100A70007168C0F3034583B200F44016B6F5401F19
:100A800008D121F070612F4E766826F070662D4FE8
:100A90007E6012E000F48016B6F5801F06D10326B2
:100AA00006FA05F4A14341F0706106E0460D3601F7
:100AB00003FA06F6B14341F0706122B1460D3601EA
:100AC00003FA06F6314300F00046B6F1004F02D1BA
:100AD0001C4EF16101E01B4E7160F0BD30B500228B
:100AE0008B071C0F0F2303FA04F2164B08338C10EC
:100AF00053F824309343134C08348D1044F82530B8
:100B000023468C1053F824308C07240F00FA04F489
:100B100023430C4C08348D1044F8253030BD0A496D
:100B2000DC3108607047000000080140000C014003
:100B3000001001400014014000180140001C014059
:100B4000002001400000014000002042DF48006812
:100B500040F00100DD49086008464068DC49084073
:100B6000DA49486008460068DA490840D749086011
:100B70000846006820F4802008600846406820F499
:100B8000FE0048604FF41F0088607047CF49096835
:100B900021F48031CD4A11601146096821F4802189
:100BA0001160B0F5803F03D0B0F5802F0ED106E084
:100BB000C649096841F48031C44A116007E0C3495D
:100BC000096841F4A021C14A116000E000BF00BFE4
:100BD000704710B501460022002300204A11012A67
:100BE00002D1BA4C236806E0022A02D1B74C236A2C
:100BF00001E0B64C636A01F01F02012494401C40DE
:100C00000CB1012000E0002010BD38B5002000909C
:100C10000024002500BF3120FFF7DBFF05460098C8
:100C2000401C00900098B0F5A06F01D0002DF2D0CC
:100C30003120FFF7CEFF08B1012400E00024204658
:100C400038BD01460020A14A106820F0F80040EAB3
:100C5000C10010607047A04908607047024600203C
:100C60009A4B586820F47C1042EA01031843974BD2
:100C70005860704798490866704701460020934ABB
:100C8000506820F003000843506070478F48406868
:100C900000F00C007047014600208C4A506820F09C
:100CA000F00008435060704701460020874A5068B2
:100CB00020F4E06008435060704701460020834AFA
:100CC000506820F4605040EAC1005060704729B17C
:100CD0007E4A527A02437D4B5A7204E07B4A527A32
:100CE00082437A4B5A7270477B49D831086070470B
:100CF00001460020754A506820F440400843506087
:100D000070470021714A20321170704A82F8201019
:100D1000012802D004280AD104E001216B4A2032C4
:100D2000117005E00521694A2032117000E000BF12
:100D300000BF70476949086070476449096A014308
:100D4000624A11627047654944390860704730B59E
:100D500000210022002400235C4D6D6805F00C0189
:100D600021B1042905D0082923D105E05C4D056097
:100D700022E05B4D05601FE0544D6D6805F4701274
:100D8000524D6D6805F48034022505EB92421CB982
:100D9000544D554305600BE04C4D6D6805F400352E
:100DA0001DB1504D5543056002E04D4D5543056062
:100DB00002E04B4D056000BF00BF444D6D6805F07B
:100DC000F0010909484D6B5C0568DD4045603F4D09
:100DD0006D6805F4E061090A434D6B5C4568DD40D0
:100DE00085603A4D6D6805F46051C90A3E4D6B5CF3
:100DF0004568DD40C560354D6D6805F44041890B9F
:100E00003A4D6B5CC568B5FBF3F5056130BD29B1A2
:100E10002E4A526902432D4B5A6104E02B4A526913
:100E200082432A4B5A61704729B1284A926902438A
:100E3000264B9A6104E0254A92698243234B9A61CA
:100E4000704729B1214AD2690243204BDA6104E09C
:100E50001E4AD26982431D4BDA61704729B11B4A91
:100E6000D2680243194BDA6004E0184AD268824320
:100E7000164BDA60704729B1144A12690243134BCA
:100E80001A6104E0114A12698243104B1A617047DB
:100E900012494039086070470F49C86470470B49D0
:100EA000C87170470948406A40F08070074948623D
:100EB000704701460020054A92680A400AB10120A5
:100EC00000E000207047014988727047001002401E
:100ED0000000FFF8FFFFF6FE00004242800442429D
:100EE00000127A0000093D001E0000202E000020A4
:100EF00010B50446FE48844209D101214806FFF797
:100F0000BAFF00214FF00070FFF7B5FF08E00121A4
:100F10008806FFF7B0FF00214FF08060FFF7ABFFBE
:100F200010BD30B5024600200023146824F00204EE
:100F30001460146844F00104146000E05B1C546801
:100F400004F001041CB94FF6FF74A342F6D15468B3
:100F500004F001040CB900206CE08C79012C04D160
:100F6000146844F08004146003E0146824F08004E2
:100F70001460CC79012C04D1146844F0400414604E
:100F800003E0146824F0400414600C7A012C04D1AE
:100F9000146844F02004146003E0146824F0200472
:100FA00014604C7A012C04D1146844F010041460CD
:100FB00003E0146824F0100414608C7A012C04D12E
:100FC000146844F00804146003E0146824F0080472
:100FD0001460CC7A012C04D1146844F00404146029
:100FE00003E0146824F0040414608C78A407CD781E
:100FF00044EA05640D7944EA05444D7944EA055410
:101000000D886D1E2C43D461146824F00104146013
:10101000002300E05B1C546804F001041CB14FF68F
:10102000FF74A342F6D1546804F001040CB100200F
:1010300000E0012030BD10B50021837A012202FAC0
:1010400003F1AC4A126842F00102AA4B1A60A94AA5
:101050001C3212688A43A74B1C331A60027BCAB940
:10106000A44A0C3212688A43A24B0C331A6042889D
:10107000C38842EA03439F4A4032847A42F83430BC
:101080000288838842EA03439A4A4032847A02EB18
:10109000C4025360027B012A19D1964A0C321268AD
:1010A0000A43944B0C331A604288038842EA034394
:1010B000904A4032847A42F83430C288838842EAC7
:1010C00003438C4A4032847A02EBC4025360C27AF2
:1010D0003AB9884A121D12688A43864B1B1D1A6052
:1010E00006E0844A121D12680A43824B1B1D1A60D7
:1010F000028932B97F4A143212688A437D4B143315
:101100001A600289012A06D17A4A143212680A4307
:10111000784B14331A60427B012A06D1754A1C327F
:1011200012680A43734B1C331A60724A126822F029
:101130000102704B1A6010BD00218171C1710172F2
:1011400041728172C1728170C170032101710221EB
:1011500041710121018070476649096841F0010130
:10116000644A11601146096843F60E729143614A60
:1011700011601146096841EA0021116011460968B1
:1011800021F001011160704721B1026842F4803200
:10119000026003E0026822F4803202607047E1B12D
:1011A000026842F0800202604FF4C272125842F4A8
:1011B00080734FF4C27213504FF4CA72125842F443
:1011C00080734FF4CA7213504FF4D272125842F423
:1011D00080734FF4D27213501BE0026822F0800239
:1011E00002604FF4C272125822F480734FF4C2723C
:1011F00013504FF4CA72125822F480734FF4CA721B
:1012000013504FF4D272125822F480734FF4D272FA
:101210001350704710B502460020936803F08063B6
:10122000B3F1806F00D110E0936803F00063B3F175
:10123000006F01D1012008E0936803F08053B3F1FF
:10124000805F01D1022000E00420042879D002F55B
:10125000C07303EB00131B6803F0010402F5C073B5
:1012600003EB00131C600B7A7BB94B7A0C8843EAC2
:10127000445302F5C07404EB00142468234302F5C0
:10128000C07404EB0014236010E00B7A4C6843EA4E
:10129000C4034C7A234302F5C07404EB00142468A1
:1012A000234302F5C07404EB001423608B7A03F02F
:1012B0000F038B7202F5C07303EB00135B6823F01E
:1012C0000F0402F5C07303EB00135C6002F5C073FA
:1012D00003EB00135B688C7A234302F5C07404EBC4
:1012E000001463608B7B1C064B7B44EA034403E0E1
:1012F00000640040006600400B7B44EA0323CC7A84
:10130000234302F5C07404EB0014A3608B7C1C061D
:101310004B7C44EA03440B7C44EA0323CC7B234309
:1013200002F5C07404EB0014E36002F5C07303EB34
:1013300000131B6843F0010402F5C07303EB0013B4
:101340001C6010BD10B50246002321B1012907D051
:1013500002290FD109E09068F94C00EA04030BE080
:101360009068F84C00EA040306E09068F64C00EA46
:10137000040301E0002300BF00BFF44C181BA3428C
:1013800016D007DC83B16FF08060184470B102287A
:1013900018D111E0B0F5007F10D0ED4C204448B1D9
:1013A000B0F5003F0ED10BE002230DE000230BE06F
:1013B000002309E0002307E0012305E0012303E007
:1013C000012301E0002300BF00BFD8B210BD21B14E
:1013D000012907D002290FD109E0826842F080027A
:1013E00082600AE0826842F40042826005E082681E
:1013F00042F40002826000E000BF00BF704710B5F9
:1014000000F5D87303EB01131B6803F00403137298
:10141000137A53B900F5D87303EB01131B6840F23C
:10142000FF7404EA5353136009E000F5D87303EB2B
:1014300001131B686FF0604404EAD303536000F5A6
:10144000D87303EB01131B6803F00203537200F51A
:10145000D87303EB01135B6803F00F03937200F57D
:10146000D87303EB01135B681B0AD37400F5D873C0
:1014700003EB01139B68D37200F5D87303EB0113E0
:101480009B681C0A147300F5D87303EB01139B6867
:101490001C0C547300F5D87303EB01139B681B0EEF
:1014A000937300F5D87303EB0113DB68D37300F576
:1014B000D87303EB0113DB681C0A147400F5D873AE
:1014C00003EB0113DB681C0C547400F5D87303EBB9
:1014D0000113DB681B0E937421B9C36843F020032A
:1014E000C36003E0036943F02003036110BD21B929
:1014F000C26842F02002C26003E0026942F02002AA
:10150000026170470246002019B9D36803F0030056
:1015100006E0012903D1136903F0030000E0002075
:10152000704710B502460B4600204FF6FF71BBB95D
:10153000146824F0020444F00104146000E0491E21
:10154000546804F00304012C01D00029F7D1546839
:1015500004F00304012C01D0002032E0012030E02F
:10156000012B13D1146824F00304146000E0491E19
:10157000546804F003040CB10029F8D1546804F055
:1015800003040CB100201CE001201AE0022B17D14B
:10159000146824F0010444F00204146000E0491EC1
:1015A000546804F00304022C01D00029F7D15468D8
:1015B00004F00304022C01D0002002E0012000E02E
:1015C000002010BD014600200A6822F0010242F00E
:1015D00002020A604A6802F00302022A00D10120D6
:1015E000704701464FF6FF7200200B6823F002039C
:1015F0000B6000E0521E4B6803F00203022B01D186
:10160000002AF7D14B6803F00203022B00D001201F
:101610007047014600208A6902F070007047014659
:1016200000208A69100E7047014600208A69C2F3C3
:10163000074070471AB143690B43436102E04369B5
:101640008B434361704710B50246002001F47003DC
:1016500043B19369C1F3130423400BB101202DE082
:1016600000202BE001F0807343B15368C1F31304F1
:1016700023400BB1012021E000201FE001F00063B6
:1016800043B19368C1F3130423400BB1012015E06B
:10169000002013E001F0007343B1D368C1F31304D9
:1016A00023400BB1012009E0002007E01369C1F3DA
:1016B000130423400BB1012000E0002010BD0022E4
:1016C000244B994202D10023836111E0C1F313023C
:1016D00001F000730BB1C2600AE001F080630BB14E
:1016E000026105E001F000630BB1826000E042603E
:1016F00070470246002002EA01030BB1012000E01E
:101700000020704770B504460D46002660692840E9
:10171000002872D0B5F5807F69D01DDC082D42D03D
:1017200006DC012D2DD0022D31D0042D7FD134E0E7
:10173000102D3ED0202D42D0402D78D145E0000024
:10174000030000040003000800000310000100086B
:101750000001FFF77000F030B5F5004F61D009DCF3
:10176000B5F5007F4AD0B5F5806F4DD0B5F5006F67
:101770005DD150E0B5F5803F2DD0B5F5003F56D195
:101780002FE0A0685549FFF7B4FF064651E0E06836
:101790000321FFF7AEFF06464BE0E0680821FFF7A4
:1017A000A8FF064645E0E0681021FFF7A2FF0646C5
:1017B0003FE020690321FFF79CFF064639E02069DE
:1017C0000821FFF796FF064633E020691021FFF756
:1017D00090FF06462DE060680821FFF78AFF064665
:1017E00027E060681021FFF784FF064621E0A0692A
:1017F0000121FFF77EFF06461BE01BE0A0690221E6
:10180000FFF777FF064614E0A0690421FFF771FF98
:1018100006460EE00BE0A0697021FFF76AFF06465E
:1018200007E060680421FFF764FF064601E0002638
:1018300000BF00E00026304670BDB1F5007F3AD011
:101840000FDC202928D006DC01291CD004291DD05A
:10185000082940D11DE0402921D0B1F5807F3AD13F
:1018600026E0B1F5004F31D006DCB1F5806F25D010
:10187000B1F5006F2FD124E0B1F5803F12D0B1F562
:10188000003F28D111E0154A826025E00822C2609D
:1018900022E01022C2601FE0082202611CE0102238
:1018A000026119E00822426016E01022426013E053
:1018B0000422426010E0042242600DE004224260F3
:1018C0000AE0002282610422426005E00022826177
:1018D0000422426000E000BF00BF70470101010028
:1018E00010B50446FB48844209D101218803FFF763
:1018F000B5FA00214FF48040FFF7B0FA32E0F64825
:10190000844209D101214804FFF7B5FA00214FF4C0
:101910000030FFF7B0FA25E0F048844209D10121F8
:101920008804FFF7A8FA00214FF48020FFF7A3FAFC
:1019300018E0EB48844209D10121C804FFF79BFA63
:1019400000214FF40020FFF796FA0BE0E5488442AF
:1019500008D101210805FFF78EFA00214FF480100D
:10196000FFF789FA10BD2DE9F04786B005460E460F
:101970000024A24600BFA1460027B08900B100BFE5
:101980002F462C8A4CF6FF700440F08804432C82CA
:10199000AC894EF6F3100440B08831890843718950
:1019A00008430443AC81AC8A4FF6FF400440B08941
:1019B0000443AC8201A8FFF7CAF9C648874202D1A6
:1019C000DDF810A001E0DDF80CA0A88900F40040CB
:1019D00040B10AEBCA0000EB0A1031684900B0FBC5
:1019E000F1F807E00AEBCA0000EB0A103168890041
:1019F000B0FBF1F86420B8FBF0F004012009642189
:101A000001FB1089A88900F4004040B1322000EBAE
:101A1000C900B0FBF1F000F00700044308E03220F9
:101A200000EB09106421B0FBF1F000F00F0004435B
:101A30002C8106B0BDE8F0874FF4165101600021FB
:101A40008180C18001810C21418100218181704709
:101A500010B502460020108A4FF2FF0318400B8891
:101A60004C8823438C882343CC882343184310821B
:101A700010BD0021018041808180C180704721B16B
:101A8000828942F40052828104E082894DF6FF731C
:101A90001A4082817047F0B50346002400260025D5
:101AA000002040F66A17B94200D100BF1846C1F3C2
:101AB000421401F01F06012707FA06F5012C01D197
:101AC0000C3004E0022C01D1103000E014301AB1C7
:101AD00007682F43076002E00768AF430760F0BD67
:101AE0001AB1838A0B43838202E0838A8B43838209
:101AF0007047028A4FF6F0731A400282028A0A4344
:101B00000282704782894FF2FF731A408281828974
:101B10000A438281704721B1828942F002028281A8
:101B200004E082894FF6FD731A4082817047028A71
:101B30004FF6DF731A400282028A0A43028270471C
:101B400021B1028A42F48042028204E0028A4BF60A
:101B5000FF731A4002827047C1F308028280704707
:101B600001468888C0F308007047818941F001016F
:101B700081817047028BD2B20283028B42EA01223A
:101B800002837047028B02F47F420283028B0A4376
:101B90000283704721B1828A42F02002828204E0EF
:101BA000828A4FF6DF731A408282704721B1828A9F
:101BB00042F01002828204E0828A4FF6EF731A40EC
:101BC0008282704721B1828A42F00802828204E058
:101BD000828A4FF6F7731A408282704721B1828958
:101BE00042F40042828103E08289C2F30E028281C4
:101BF000704721B1828A42F40062828204E0828AC4
:101C00004FF2FF731A4082827047828A4FF6FB734D
:101C10001A408282828A0A438282704721B1828A74
:101C200042F00202828204E0828A4FF6FD731A407B
:101C30008282704702460020B1F5007F00D100BFCC
:101C400013880B400BB1012000E00020704701F425
:101C50000072B2F5007F00D100BFCA430280704716
:101C600070B50246002400230025002040F66A16C5
:101C7000B14200D100BFC1F3421501F01F0301269C
:101C800006FA03F3012D02D19689334006E0022DB6
:101C900002D1168A334001E0968A33400C120126A5
:101CA00006FA04F41688344013B10CB1012000E0A8
:101CB000002070BD10B50022002340F66A14A14236
:101CC00000D100BF0A1201249440A3B2DC43048077
:101CD00010BD0000003801400044004000480040B2
:101CE000004C00400050004010B50446FE488442BD
:101CF00008D10121C014FFF7B1F80021E014FFF76B
:101D0000ADF8C4E0B4F1804F08D101210846FFF7D7
:101D1000B2F800210120FFF7AEF8B8E0F3488442A2
:101D200008D101210220FFF7A6F800210220FFF7C9
:101D3000A2F8ACE0EE48844208D101210420FFF76C
:101D40009AF800210420FFF796F8A0E0E9488442C1
:101D500008D101210820FFF78EF800210820FFF7A5
:101D60008AF894E0E448844208D101211020FFF76A
:101D700082F800211020FFF77EF888E0DF488442D7
:101D800008D101212020FFF776F800212020FFF75D
:101D900072F87CE0DA48844208D101214014FFF750
:101DA0005DF800216014FFF759F870E0D5488442CF
:101DB00009D10121C804FFF751F800214FF4002098
:101DC000FFF74CF863E0D048844209D101210805AF
:101DD000FFF744F800214FF48010FFF73FF856E07A
:101DE000CA48844209D101214805FFF737F800218C
:101DF0004FF40010FFF732F849E0C548844208D19B
:101E000001214020FFF737F800214020FFF733F889
:101E10003DE0C048844208D101218020FFF72BF823
:101E200000218020FFF727F831E0BB48844208D129
:101E300001218015FFF71FF80021A015FFF71BF8FF
:101E400025E0B648844209D101210804FFF706F8CD
:101E500000214FF48030FFF701F818E0B0488442C9
:101E600009D101214804FEF7F9FF00214FF40030A9
:101E7000FEF7F4FF0BE0AB48844208D1012188044F
:101E8000FEF7ECFF00214FF48020FEF7E7FF10BDC6
:101E900000220288944B98420ED0994B98420BD066
:101EA000B0F1804F08D0914B984205D0904B9842AA
:101EB00002D0904B984204D14FF68F731A404B8852
:101EC0001A438D4B984207D08C4B984204D04FF662
:101ED000FF431A40CB881A4302808B8883850B8886
:101EE0000385814B98420BD0854B984208D08B4B91
:101EF000984205D08A4B984202D08A4B984201D131
:101F00000B7A038601238382704770B50024002278
:101F10000023058C4FF6FE7635400584028C8388BD
:101F2000048B4FF68F752C40B51E2C400D882C432A
:101F3000751E2A400D892A434D882A436A4DA842BE
:101F40000BD06F4DA84208D0744DA84205D0744DF7
:101F5000A84202D0734DA84213D14FF6F7752A401C
:101F60004D892A434FF6FB752A408D882A434FF648
:101F7000FF652B404FF6FF552B408D892B43CD89B4
:101F80002B4383800483CD888586028470BD70B521
:101F9000002400220023058C4FF6EF76354005849F
:101FA000028C8388048B48F6FF752C404FF6FF4562
:101FB0002C400D884FF6FF7606EA05252C434FF698
:101FC000DF752A400D8906EA05152A434D8806EA81
:101FD00005152A43444DA84202D0494DA8421DD1BF
:101FE0004FF67F752A404D894FF6FF7606EA0515B4
:101FF0002A434FF6BF752A408D8806EA05152A4305
:102000004FF6FF352B404FF2FF752B408D8906EAC6
:1020100085052B43CD8906EA85052B438380048300
:10202000CD880587028470BD70B50024002200238E
:10203000058C4FF6FF6635400584028C8388848BBF
:102040004FF68F752C404FF6FC752C400D882C43B5
:102050004FF6FF552A400D894FF6FF7606EA052513
:102060002A434D8806EA05252A431F4DA84202D07F
:10207000234DA8421DD14FF2FF752A404D894FF6DE
:10208000FF7606EA05252A434FF6FF352A408D885C
:1020900006EA05252A434EF6FF752B404DF6FF75DF
:1020A0002B408D8906EA05152B43CD8906EA0515D7
:1020B0002B4383808483CD888587028470BD70B56F
:1020C000002200230024058C4EF6FF76354005845F
:1020D000038C8488828B48F6FF752A404FF6FF45B3
:1020E0002A400D8820E00000002C01400004004040
:1020F00000080040000C00400010004000140040A8
:1021000000340140004C01400050014000540140A7
:1021100000180040001C004000200040004001402A
:1021200000440140004801404FF6FF7606EA0525CD
:102130002A434DF6FF752B400D8906EA05352B43E2
:102140004D8806EA05352B43FA4DA84202D0FA4DD8
:10215000A84208D14BF6FF752C408D894FF6FF76CB
:1021600006EA85152C4384808283CD88A0F84050F0
:10217000038470BD828B4FF2FF331A408283828BBF
:102180004FF6FF7303EA01231A4382837047F0B5C9
:102190000C461546002200210026078C4EF6FF7CD7
:1021A00007EA0C070784828B018C4FF6FF7707EA5A
:1021B000043640F6FF473A404FF6FF7707EA052717
:1021C0003A434FF6FF7707EA03373A43D94FB8420D
:1021D0000ED0D94FB8420BD0B0F1804F08D0D74FB6
:1021E000B84205D0D64FB84202D0D64FB84206D139
:1021F0004DF6FF77394046F48057394305E047F6FE
:10220000FF57394044F48057394382830184F0BD3D
:10221000828B4FF6F3731A408283828B0A43828348
:102220007047F0B50C461546002200210026078CA9
:102230004FF6FF6C07EA0C070784828B018C4FF680
:10224000FF7707EA04264FF60C773A404FF6FF7700
:1022500007EA03172F433A43B64FB8420ED0B64FA2
:10226000B8420BD0B0F1804F08D0B44FB84205D07F
:10227000B34FB84202D0B34FB84206D14FF6FF5722
:10228000394046F48077394305E04FF2FF57394033
:1022900044F48077394382830184F0BD028B4FF28E
:1022A000FF331A400283028B4FF6FF7303EA0123C8
:1022B0001A4302837047F0B50C46154600220021F0
:1022C0000026078C4FF6EF7C07EA0C070784028B89
:1022D000018C4FF6FF7707EA041640F6FF473A40B5
:1022E0004FF6FF7707EA03373A434FF6FF7707EADF
:1022F00005273A438F4FB8420ED08F4FB8420BD0CC
:10230000B0F1804F08D08D4FB84205D08C4FB84205
:1023100002D08C4FB84206D14FF6DF77394046F0F5
:102320001007394305E04FF65F77394044F0100756
:10233000394302830184F0BD028B4FF6F3731A40D8
:102340000283028B0A4302837047F0B50C461546A0
:1023500000220021068C4FF6FE773E400684028B59
:10236000018C4FF60C7632407E1C06EA03162E4393
:102370003243704EB0420ED06F4EB0420BD0B0F12F
:10238000804F08D06D4EB04205D06D4EB04202D0A5
:102390006C4EB04206D14FF6FD76314044F0010656
:1023A000314305E04FF6F576314044F00106314304
:1023B00002830184F0BD70B505460C465D48854238
:1023C0000ED05D4885420BD0B5F1804F08D05B48F8
:1023D000854205D05A48854202D05A48854200D1EC
:1023E00000E000BF208850B92389A2886188284670
:1023F000FFF7ABFFE1882846FFF79EFF25E0208826
:1024000004280AD12389A28861882846FFF753FF50
:10241000E1882846FFF742FF17E0208808280AD104
:102420002389A28861882846FFF7FBFEE1882846B9
:10243000FFF7EEFE09E02389A28861882846FFF7AE
:10244000A6FEE1882846FFF795FE70BD2DE9F04114
:1024500005460C4600260127608808B9022600E0E0
:102460000026A088012801D1022700E0012720884A
:10247000A0B92389A28861882846FFF766FFE18812
:102480002846FFF759FF23893A4631462846FFF789
:1024900012FFE1882846FFF701FF13E02389A28895
:1024A00061882846FFF707FFE1882846FFF7F6FE18
:1024B00023893A4631462846FFF747FFE1882846F8
:1024C000FFF73AFFBDE8F0810A884B881A438B88F2
:1024D0001A43CB881A430B891A434B891A438B89B9
:1024E0001A43A0F8442070474FF6FF718180002105
:1024F0000180C180418001727047002101804180CC
:102500008180C180018141818181C1817047002129
:1025100001804180012181800021C18001817047BB
:102520000021018041808180C180018141818181C0
:1025300070470000002C01400034014000040040BE
:1025400000080040000C004021B1028842F0010266
:10255000028004E002884FF6FE731A400280704742
:1025600031B1B0F8442042F40042A0F8442005E024
:10257000B0F84420C2F30E02A0F8442070471AB10C
:1025800083890B43838102E083898B438381704776
:102590008182704741EA0203A0F8483070471AB1BF
:1025A00083890B43838102E083898B438381704756
:1025B00001894FF6F8721140018170470A460021E7
:1025C00001894FF68F73194011430181704730B56F
:1025D00004460D4629462046FFF7F0FF208940F0CB
:1025E0000700208130BD2DE9F04104460D46164616
:1025F0001F46602D06D13B46012231462046FFF79B
:102600005AFE05E03B46012231462046FFF79DFE7B
:1026100029462046FFF7D2FF208940F0070020819D
:10262000BDE8F08130B50C4600210189C9B24FF6F2
:10263000FF7505EA0325154325432943018130BD74
:102640002DE9F04105460E461746984600244346BC
:102650003A4631462846FFF7E5FF2C894FF6F870D9
:10266000044044F007044FF68F70044044F07004B7
:102670002C81BDE8F081F0B504460D4616461F4694
:102680003B46324629462046FFF7CCFF208940F4DE
:1026900080402081F0BD0185828270470A4600217A
:1026A00001884FF68F731940114301807047F0B5D0
:1026B0000C4615461E460021002200230189028B8C
:1026C000038C4FF6F877394021434FF6FC473A40E8
:1026D00040F201173A434FF6DD773B404FF6FF7764
:1026E00007EA06172F433B43018102830384F0BDB1
:1026F0000A460021018B4FF68F7319401143018365
:1027000070470A460021018B48F6FF7319404FF6C7
:10271000FF7303EA02231943018370470A4600212D
:10272000818B4FF68F7319401143818370470A469E
:102730000021818B48F6FF7319404FF6FF7303EABF
:10274000022319438183704721B1028842F080023D
:10275000028004E002884FF67F731A4002807047BF
:1027600021B1828842F00402828004E082884FF620
:10277000FB731A408280704721B1828842F00802C0
:10278000828004E082884FF6F7731A408280704797
:1027900021B1828842F00102828004E082884FF6F3
:1027A000FE731A40828070470A460021018B4FF663
:1027B000F77319401143018370470A460021018BCA
:1027C0004FF2FF7319404FF6FF7303EA02231943D8
:1027D000018370470A460021818B4FF6F773194039
:1027E0001143818370470A460021818B4FF2FF73AA
:1027F00019404FF6FF7303EA0223194381837047A0
:102800000A460021018B4FF6FB73194011430183E7
:1028100070470A460021018B4FF6FF3319404FF6EF
:10282000FF7303EA02231943018370470A4600211C
:10283000818B4FF6FB7319401143818370470A4621
:102840000021818B4FF6FF3319404FF6FF7303EAE7
:1028500002231943818370470A460021018B4FF6FA
:102860007F7319401143018370470A460021018B91
:10287000C1F30E014FF6FF7303EA022319430183EC
:1028800070470A460021818B4FF67F731940114330
:10289000818370470A460021818BC1F30E014FF6F8
:1028A000FF7303EA02231943818370470A4600211C
:1028B000018C4FF6FD7319401143018470470A469D
:1028C0000021018C4FF6F7731940114301847047C2
:1028D0000A460021018C4FF6DF7319404FF6FF7353
:1028E00003EA02131943018470470A460021018C50
:1028F0004FF67F7319404FF6FF7303EA0213194333
:10290000018470470A460021018C4FF6FF5319409D
:102910004FF6FF7303EA02231943018470470A4606
:102920000021018C4FF2FF7319404FF6FF7303EA49
:1029300002231943018470470A460021018C4DF699
:10294000FF7319404FF6FF7303EA02331943018402
:10295000704730B5002301248C40A3B2048C9C4303
:102960000484048C02FA01F5ADB22C43048430BD1A
:1029700030B5002304248C40A3B2048C9C4304840F
:10298000048C02FA01F5ADB22C43048430BD70B55D
:102990000346002000241846183001258D40ACB2B3
:1029A0001D8CA5431D8409B1082909D100EB6100E4
:1029B000056825F0700505600568154305600EE0A3
:1029C0000D1FC5F34E052844056825F4E045056054
:1029D00005684FF6FF7606EA02263543056070BDAE
:1029E00021B1028842F00202028004E002884FF620
:1029F000FD731A400280704721B1028842F0040240
:102A0000028004E002884FF6FB731A400280704790
:102A100021B1828842F08002828004E082884FF6F1
:102A20007F731A408280704702884FF6F7731A400E
:102A3000028002880A430280704782884FF68F73B3
:102A40001A40828082880A438280704702894FF64A
:102A5000F8731A40028102890A4302817047028991
:102A60004FF67F731A40028102890A430281704740
:102A700081847047818570478186704701877047E0
:102A800081877047A0F84010704702884FF6FF43D7
:102A90001A40028002880A43028070470146888EED
:102AA00070470146088F70470146888F704701467E
:102AB000B1F8400070470146888C70470146088D88
:102AC000704702460020138A0B400BB1012000E042
:102AD00000207047CA430282704730B5024600208A
:102AE00000230024158A05EA0103958905EA0104FB
:102AF00013B10CB1012000E0002030BDCA430282B6
:102B00007047000030B503460C46D3F80C0200783D
:102B100060B9002106E00020D3F8105245F82100EA
:102B2000481CC1B293F809028842F4DC002030BD91
:102B300010B50446AFF23303002241F203012046F0
:102B400000F004FD0020D4F80C12087010BD70478E
:102B5000FEB504460D4617461E46D4F818020088F6
:102B600080B2ADF8000000208DF8020008208DF83A
:102B70000300E8B28DF80400290A8DF805108DF8DD
:102B800006702EB90021CDF807108DF80B1005E066
:102B90003168CDF8071031798DF80B106946D4F8FB
:102BA000E40105F039FEFEBD2DE9F04704460E466E
:102BB00090469946002517E004F5077030F8250087
:102BC000B0420FD104F5077000EB8500C07810B15A
:102BD0000020BDE8F087012104F5077000EB8500B7
:102BE000C17003E0681CC5B2082DE5DB00BF082DED
:102BF0000DD1002508E004F5077000EB8500C078D2
:102C000000B903E0681CC5B2082DF4DB00BF082D35
:102C100001D10120DDE704F5077020F8256000EB05
:102C2000850080F80280012104F5077000EB850023
:102C3000C170012084F80802002500270EE004F589
:102C4000077000EB8500C078012805D104F50770F6
:102C500000EB850080780743681CC5B2082DEEDBC9
:102C6000D4F81402077094F80902401EC5B20BE0B4
:102C7000D4F8100200EB850050F8040CD4F81012C0
:102C800041F82500681EC5B2002DF1DC46EA094076
:102C9000D4F810120860D4F80C02007894F80912E5
:102CA000884206DAD4F80C020078401CD4F80C12E2
:102CB00008707F20005D40B1D4F814020278002330
:102CC00031462046FFF744FF83E7012081E72DE9E5
:102CD000F04105460F464FF00008002408E005F5D6
:102CE000077030F82400B84200D103E0601CC4B281
:102CF000082CF4DB00BF082C33D005F5077000EB7F
:102D00008400C07801282CD1002105F5077000EB64
:102D10008400C170002400260FE005F5077000EB69
:102D20008400C078012806D1804605F5077000EBC5
:102D3000840080780643601CC4B2082CEDDBB8F137
:102D4000000F0BD1002085F808027F20405D28B1DC
:102D500000231A4619462846FFF7FAFED5F8140252
:102D60000670BDE8F0812DE9F84305460C46E07891
:102D7000082801D0BDE8F883207800F07F0621798B
:102D8000607941EA002794F80680E01D00904346F0
:102D90003A4631462846D5F83CC2E04700BFE9E74D
:102DA00010B5029C10BD000002460F20802902DAF7
:102DB00002F1B403585C704770B504460D46D4F870
:102DC000A00050F82500C0F307464FF0FF30D4F8BC
:102DD000A41021F81500012104F1B40081553146F9
:102DE0002046D4F8B020904770BD2DE9FE4F044630
:102DF0000F46387800F07F05B878012829D120687F
:102E00000078A8427AD12068007800F5E066ADF835
:102E1000006001208DF8030000208DF8020094F876
:102E20007C008DF8040094F8E00148B19DF804009E
:102E300040F080008DF80400002084F8E00102E0FA
:102E4000012084F8E0016946D4F8E40105F0E4FCCF
:102E500054E0387900F07F08D4F84001017804F597
:102E6000A27041559038405D404509D04246294600
:102E70002046D4F8DC31984704F1B40000F805800E
:102E800004F1B400405D20B929462046D4F8D82189
:102E9000904704F1B400405D0F282ED0002626E0B4
:102EA000D4F8A00050F82600C0F307494D451CD1C6
:102EB000D4F8A00030F826001FFA80FAD4F8A41045
:102EC00031F9160005F084FB002000904FF47A7071
:102ED0000AFB00F3AFF21F123146204605F024FB37
:102EE000D4F8A41021F8160000BF701CC6B2D4F8A4
:102EF0009C000078B042D3DC00BF00BFBDE8FE8F6D
:102F0000FEB504460E46D4F8A8000088A8B1206893
:102F1000007800F5E065ADF8005001208DF8030061
:102F200000208DF8020094F87C008DF804006946BA
:102F3000D4F8E40105F070FC05E0B4F9AC0005F04C
:102F400047FBA4F8AC00FEBD70B504460E46D4F8AD
:102F50003C01008860B3002527E004F1B400405D27
:102F60000F2820D020680078A8421CD004F5A27059
:102F7000405D00280BDCD4F8380120B129462046FA
:102F8000D4F838219047012104F1B400415504F5EB
:102F9000A270405D401EC1B204F5A27041552946A1
:102FA000204600F013F9681CC5B2802DD5DB05E082
:102FB000B4F9340105F00CFBA4F8340170BDF8B588
:102FC0000446764B002241F20C01204600F0BEFA86
:102FD000724B002241F20D01204600F0B7FAD4F8FE
:102FE0003C01008858B3D4F84001007838B3D4F8D5
:102FF0003C0106884FF47A7106FB01F006FB01F3F1
:10300000AFF2BB0200210090204605F08DFAA4F833
:103010003401002510E004F1B400405D0F2809D010
:1030200020680078A84205D0D4F84001017804F562
:10303000A2704155681CC5B2802DECDB00BFF8BD05
:1030400010B50446B4F9340105F0C2FAA4F834010D
:1030500010BD70B504460D4616462046FFF7F0FF3A
:103060002046FFF7ACFF002070BDF8B504460E46C1
:103070001746A834B4F9040005F0AAFAA08054F861
:10308000A809008888B1D4F8A80005884FF47A719F
:1030900005FB01F00023AFF297121946009020467D
:1030A00005F042FAA4F8AC0000BF0020F8BDF8B566
:1030B0000446AFF24903002241F21701204600F016
:1030C00045FA002084F8E001002517E0D4F8A000BC
:1030D00030F8250086B27EB1002000904FF47A705F
:1030E00006FB00F3AFF22F322946204605F01CFA0A
:1030F000D4F8A41021F81500681CC5B2D4F89C00BF
:103100000078A842E2DCD4F8A800008890B1D4F896
:10311000A80006884FF47A7106FB01F006FB01F364
:10312000AFF2232200210090204605F0FDF9A4F81B
:10313000AC0000BFF8BD70B5044600250BE0D4F824
:10314000A41031F9150005F043FAD4F8A41021F8C1
:103150001500681CC5B2D4F89C000078A842EEDCCB
:10316000B4F9AC0005F034FAA4F8AC0070BD10B5A9
:1031700004462046FFF79BFF2046FFF720FF10BDC7
:1031800010B504462046FFF7D6FF2046FFF758FF4C
:1031900010BD7047704770477047000053300008FB
:1031A000FEB504460D4616460020ADF800008DF829
:1031B000020002208DF803008DF804608DF80550A0
:1031C0006946D4F8E40105F027FBFEBDFEB50446D0
:1031D0000D4645F4E066ADF8006001208DF8020070
:1031E00000208DF803006946D4F8E40105F014FBD3
:1031F000FEBD70B504460D460F2104F1B4004155E3
:103200005DB9002000BF05E00F2204F1B4010A54AB
:10321000411CC8B28028F7DB00BF29462046FFF7D3
:10322000D5FF70BD70B504460D4694F87C007F282C
:1032300007D094F87C00052803D094F87C0004287B
:103240005FD1687920B1687921680978884258D1BE
:103250002879802824D004DC012807D002284FD107
:1032600011E0812829D082284AD132E094F87C00EC
:103270007F2803D094F87C00042803D10521204640
:1032800004F023FF3CE094F87C007F2803D094F8FE
:103290007C00052803D10421204604F016FF2FE00E
:1032A00094F87C00052803D094F87C00042803D10E
:1032B0007F21204604F009FF22E0D4F8940018B1E1
:1032C0002046D4F8941088470021204604F0FDFEE3
:1032D00016E0204604F05DFF0646D4F8980018B1C9
:1032E0002046D4F898108847FF202168087031469E
:1032F000204604F052FF0021204604F0E6FE00BF05
:1033000000BF70BD3EB504462168097841F4E06015
:10331000ADF8000000208DF8020001208DF80300B8
:1033200000208DF804006946D4F8E40105F074FA31
:103330003EBD000030B50546039C002030BD2DE9A0
:10334000FC5F81468A4614469846DDE90C6B01AA6B
:1033500051464846D9F8E83198470546019810B1DA
:103360000198BDE8FC9F2879A04209DC854800232C
:103370001A46214600905046FFF7DCFF8148F0E7EF
:103380000E9880B1286800EB0410007800F001006E
:1033900048B17D4800231A46214600905046FFF769
:1033A000C9FF7948DDE7B8F1000F02D14FF00060A6
:1033B000D7E7286800EB041040683168884206D9D6
:1033C000286800EB0410406830607048C9E728683E
:1033D00000EB041040788BF80000286800EB041024
:1033E0004768286800EB04103A468168404605F0BB
:1033F00017FC9BF80000092801D037600DE0286811
:1034000000EB041040683168884205D2002008F8BB
:103410000700781C306000E037600020A1E72DE94C
:10342000FF4F83B080468B461546109C02AA594632
:103430004046D8F8E83198470646029818B10298F5
:1034400007B0BDE8F08F3079A84209DC4D48009004
:103450000022294658462368FFF76CFF4948EFE7EA
:10346000119888B1306800EB0510007802280BD164
:103470004548401C00900022294658462368FFF723
:1034800059FF4148401CDBE7306800EB051090F81D
:103490000190306800EB05104768306800EB0510BC
:1034A000D0F80CA0206810B12068B84243D8D8F8F2
:1034B00024204846069990470290029848B1029805
:1034C00000903A46294658462368FFF733FF029892
:1034D000B6E7316801EB051188682268069905F0A6
:1034E0009FFBB9F1090F09D12068B84206D200202C
:1034F000316801EB05118968226888542760BAF1A8
:10350000000F08D02A4631464046D0470290029824
:1035100008B1029894E7306800EB0510007800F0DD
:10352000040030B12A4659464046D8F8EC31984755
:1035300086E7002084E72760154800903A46294630
:1035400058462368FFF7F6FE114879E72DE9F8435E
:103550000546884614461E466A4641462846D5F822
:10356000E83198470746009830B93879A04203DD22
:10357000386800EB0410C6600098BDE8F883034685
:10358000002070471100090601000106050004052E
:10359000100007062DE9FF4FDDE90D456CE0A5EBB6
:1035A000020A4FFA8AF3002B04DD91F800A00AFA10
:1035B00003FA05E091F800A0C3F1000B4AFA0BFAF8
:1035C0000AF0FF0C002B02DDC5F1080A01E0C2F190
:1035D000080A0AF0FF08804501DD824600E0C24685
:1035E000564605EB060B4FF0FF0A0AFA0BFAC5F137
:1035F000080E4FF0FF0B4BFA0EFB4AEA0B0A0AF0DB
:10360000FF072CEA070994F800A00AEA070A84F8E1
:1036100000A094F800A04AEA090A84F800A002EB8E
:10362000060A0AF0FF0A5246BAF1070F0BDD002224
:10363000DDF80CA0BAF1000F02D04FF0FF3A01E024
:103640004FF0010A514405EB060A0AF0FF0A5546FD
:10365000BAF1070F0BDD0025DDF83CA0BAF1000F31
:1036600002D04FF0FF3A01E04FF0010A5444A0EBC2
:10367000060A0AF0FF0000BF002890DCBDE8FF8FBB
:103680002DE9F04F8DB004468846154661690989D9
:10369000606800EBC10000EBC8000C9061694989CB
:1036A000606800EBC10000EBC80B4FF0000900267A
:1036B000DBF8000080680B900C9800688069008837
:1036C000C0F30A0028800020A87000BF00200890E6
:1036D000099009F10100DBF8001001EB0010D0F8AF
:1036E00008A0DAF80000000C07909AF80070002F8C
:1036F00034D0F019402831D8781E012101EBD000D8
:103700000690BAF80000C0F30720059001200021C0
:103710000AAA06ABCDE90032CDE9021008AB20467B
:10372000059A0799FFF70BFE18B1FF200DB0BDE811
:10373000F08F9DF82010FEA005F074F9002206F02D
:103740000700291D01EBD601CDE901020091F8B275
:10375000134608A9FFF71EFF3E4400BF09F1010010
:1037600000F0FF090B9800784845AFDC701E01217E
:1037700001EBD000E8700020D8E72DE9FE430446B5
:103780000E4660698588A069B0F804808220005DDB
:1037900010B90020BDE8FE83EDB1B6F5A05F1ADBDD
:1037A000A6F5A050284485B2454513DC606850F862
:1037B00035008769388880B2ADF8000001208DF8A7
:1037C000020000208DF803006946D4F8E40105F0FA
:1037D00023F8DFE700BFFF20DCE770B504460E46A4
:1037E000154606EBC601A06800EB4100296840F8C9
:1037F000061F69684160A96881602946D4F8E40120
:1038000005F00AF870BD70B505460C464FF0FF3064
:1038100004EBC402A96801EB4201888004EBC401F7
:10382000A86810F8110020F0010004EBC402A96898
:1038300001F81200E1B2284600F001F870BD2DE950
:10384000FF4104460D468220005D38B105EBC501FD
:10385000A06810F8110000F0010018B1002004B0B9
:10386000BDE8F08160690089284486B2606850F83C
:1038700036008069006800F0004008B10020EEE7E3
:10388000002001900290039001AA29462046FFF7EC
:10389000F7FE08B10020E2E705EBC501A06800EBE8
:1038A0004100C088BDF80410884217D105EBC5015E
:1038B000A06800EB4100407A9DF8071088420DD1C6
:1038C00005EBC502A16801EB420101F10A000822E3
:1038D00002A905F079F908B90020C0E7606850F83E
:1038E0003600806D0788606850F83600806BB0F84D
:1038F0000080CFB105EBC502A16801EB4201B1F92F
:10390000020004F065FE002000904FF47A7007FB7F
:1039100000F38D4A2946204604F006FE05EBC50259
:10392000A16801EB42014880B8F1000F25D005EBFA
:10393000C502A16801EB4201B1F9040004F048FEA0
:1039400000200090642008FB00F3AFF245122946E6
:10395000204604F0E9FD05EBC502A16801EB420138
:10396000888005EBC501A06810F8110040F0010047
:1039700005EBC502A16801F8120001AA29462046FC
:10398000FFF72BFF00BF012069E770B505460C4625
:103990004FF0FF3004EBC402A96801EB42014880FC
:1039A000002004EBC402A96801EB4201C880E1B227
:1039B0002846FFF744FF70BD2DE9F04F8DB0044657
:1039C0000F4600200C9080460B900A900220099030
:1039D0003888C0F30A035DA243F6351161A005F0F3
:1039E00021F8C1460025AA46B878002878D1606938
:1039F0008688A06980880790002E72D048E10998D7
:103A0000022802D0042814D11BE0606850F8360068
:103A100080690A900A980068398888420AD104208F
:103A2000099005F5A05352A243F636114DA004F0BB
:103A3000F9FF2CE1681CC5B2701C86B20220099007
:103A400025E16069C688A069C0880790606800EBBE
:103A5000C60050F8350080680C904FF0000AF0E086
:103A6000002005900690606800EBC60050F8351005
:103A70000AF1010001EB0010D0F80880B8F1000F46
:103A80000BD10AF1010340A241F6371135A004F031
:103A9000C9FFFF200DB0BDE8F08F98F800B0BBF172
:103AA000000F43D009EB0B00F978B0EBC10F3DDC00
:103AB000002005AACDE90020CDE902094FEAE9700E
:103AC00009EB5070C010A9EBC000C2B2381D00EB6A
:103AD000E90100235846FFF75DFD002003900AE04E
:103AE000DBE061E105AA0398115C30A004F09AFFC5
:103AF0000398401C039003980828F3DB1BA004F0F4
:103B000091FFABF10100012101EBE00004900120E5
:103B1000002104AACDE900210290B8F80000C0F30A
:103B20000722D8F80000010C05AB41E084E000005A
:103B3000BDA8C1A250444FA3AC31CAFDBEDDCEAA80
:103B4000A3BA2578000000008B39000870726F63FB
:103B500065656450444F2C20636F624944203A20CD
:103B60000000000025782C25732C25780A00000021
:103B7000636F62496420666F756E642061742069AA
:103B80006E64657820000000436F756C646E277466
:103B900020676574206D617070696E672070617256
:103BA000616D65746572203A200000002564200074
:103BB0002046FFF734FC0890089800281FD00AF12F
:103BC0000103EFA241F63811AFF2680004F02AFFBA
:103BD000D8F80000030CF4A242F63911AFF27C00D1
:103BE00004F020FFB8F80000C0F30723F5A24FF45B
:103BF0002551AFF2900004F015FFFF204AE73B8803
:103C0000F7A243F64211AFF2A40004F00BFFD8F87C
:103C10000000030CE4A243F64311AFF2B80004F035
:103C200001FFB8F80000C0F30723E6A243F64411F1
:103C3000AFF2D00004F0F6FE0AF1010000F0FF0A36
:103C400000BF0C98007850453FF70AAFE068E0B13C
:103C5000606850F83600806D00880690069898B12C
:103C6000E16831F9150004F0B3FC002000904FF436
:103C70007A71069800FB01F329462046226904F078
:103C800053FCE16821F8150000BF002002E700BFE7
:103C9000079886427FF7B3AE9DE0B8780128FBD144
:103CA000099060690689A06900890790002E7BD081
:103CB0008DE00998012804D0042816D005280CD1DD
:103CC00075E0606850F8360080690A900A980068CC
:103CD0003988884202D10420099077E0681CC5B277
:103CE000701C86B20120099070E0606850F83600C0
:103CF000806A0B900B980078FD2802D1052009906E
:103D000064E00B980078FC2816D105EBC501A0688B
:103D100010F8110000F0010058B105EBC503A268CE
:103D200002EB4302911DD4F8E40104F075FD00207C
:103D3000B0E60520099049E00B980078FF2803D0F1
:103D40000B980078FE2830D105EBC502A16801EB85
:103D50004201B1F9020004F03BFC05EBC502A16889
:103D600001EB4201488005EBC502A16801EB42016D
:103D7000B1F9040004F02CFC05EBC502A16801EBCD
:103D80004201888005EBC501A06810F8110020F001
:103D9000010005EBC502A16801F812002946204682
:103DA000FFF7F3FD002075E615E0FF2072E604AA98
:103DB00029462046FFF764FC08B1FF206AE604A903
:103DC000D4F8E40104F028FD002063E600BF079862
:103DD00086427FF76EAF00205CE62DE9FE4F044679
:103DE0000F46002500264FF003096069B0F80880EF
:103DF0006069B0F80AA0A069B0F808B08220005D40
:103E000010B90020BDE8FE8FB8F1000F73D000207C
:103E1000009001900290A6E0B9F1030F06D0B9F12D
:103E2000050F6AD0B9F10B0F68D18CE0606850F8CB
:103E300038008069006800F0004010B14FF00B09B5
:103E400090E0606850F83800866A4FB330780128F7
:103E500026DB3078F02823DC05EBC501A06810F8DC
:103E60001100401CC0B205EBC502A16801F81200A8
:103E70003178884214D1002005EBC502A16801F811
:103E800012000090019002906A4629462046FFF7F2
:103E9000F7FB10B14FF00B0964E04FF0050949E062
:103EA00057B33078FC282AD105EBC501A06800EB98
:103EB0004100821D29462046FFF7E2FB60B105EB79
:103EC000C501A06810F8110020F0010005EBC50243
:103ED000A16801F812000BE005EBC501A06810F81D
:103EE000110040F0010005EBC502A16801F81200C5
:103EF0004FF00B0936E03AE001E01CE030E00FB192
:103F0000307870B1A7B93078FF2802D03078FE2819
:103F10000ED105EBC501A06810F8110000F00100FA
:103F200030B929462046FFF78AFC4FF00B0901E023
:103F30004FF00B0916E06A4629462046FFF74DFC74
:103F40004FF00B090EE0681CC5B208F101001FFA22
:103F500080F80AF101001FFA80FA4FF0030901E02E
:103F6000FF204FE700BFD8457FF756AF00BF0020C6
:103F700048E710B5044600212046FFF72EFF10BD8C
:103F80006572726F7220616363657373696E672017
:103F9000746F20746865206D61707065642076614F
:103FA00072203A2000000000202020202020202025
:103FB000204D617070656420617420696E6465785D
:103FC000203A2000202020202020202020202020F7
:103FD00020202020737562696E646578203A200085
:103FE0005661726961626C652075706461746564A4
:103FF0002062792050444F20636F626964203A2028
:104000000000000070472DE9F04104460E461746B7
:104010008220005DE0B3022F04D0032F03D0052FD0
:1040200037D101E000BF00BF61690989606800EB1A
:10403000C108A6EB0800C0F3C70505EBC502A168DF
:1040400001EB4201B1F9020004F0C2FA05EBC5022E
:10405000A16801EB4201488005EBC502A16801EBB4
:104060004201B1F9040004F0B3FA05EBC502A168FE
:1040700001EB42018880002005EBC502A16801F830
:10408000120029462046FFF780FC0020BDE8F081A1
:1040900001E000BF00BF0020F8E72DE9F843044627
:1040A0004FF4C05760690589A069B0F80880C5B1B0
:1040B00015E06A4639462046D4F8E8319847064666
:1040C000009838B9AFF2C1013068C1623068C1638D
:1040D0003068C165781C87B2681C85B200BF454551
:1040E000E7DD00212046FFF778FEBDE8F8832DE9E3
:1040F000F0410446002560690689A069078986B3F6
:104100002DE005EBC502A16801EB4201B1F9020007
:1041100004F05EFA05EBC502A16801EB420148809C
:1041200005EBC502A16801EB4201B1F9040004F0FE
:104130004FFA05EBC502A16801EB4201888000201F
:1041400005EBC502A16801F8120005EBC502A168E4
:1041500001EB4201C880681CC5B2701C86B2BE4229
:10416000CFDDBDE8F08110B50A4643691B8903B96C
:1041700010BD43691B89134499B2436853F8313029
:104180009B691B6823F00044436853F831309B69F6
:104190001C6000BFECE710B50A4643691B8903B9F0
:1041A00010BD43691B89134499B2436853F83130F9
:1041B0009B691B6843F00044436853F831309B69A6
:1041C0001C6000BFECE700002DE9F84304460D46F3
:1041D00017469846DDE90896022E05D0032E03D037
:1041E000042E01D0052E12D10020FE4BFE4A294696
:1041F0000090204604F098F9C5EBC50101EB41029F
:1042000004F1280101EB8201A1F84C0015E0C5EB97
:10421000C50101EB410204F1280101EB8201B1F972
:104220004C0004F0D5F9C5EBC50101EB410204F1E6
:10423000280101EB8201A1F84C00C5EBC50000EBA1
:10424000400104F1280000F82170C5EBC50000EB27
:10425000400104F1280000EB8100A0F80880C5EBC4
:10426000C50000EB400104F1280000EB810080F85C
:104270000A90C5EBC50000EB400104F1280000EBFB
:10428000810086700021C5EBC50000EB400204F1FF
:10429000280000EB8200C170C5EBC50000EB4002B6
:1042A00004F1280000EB8200C160C5EBC50000EB03
:1042B000400204F1280000EB82000161C5EBC5005B
:1042C00000EB400204F1280000EB820080F834107B
:1042D000C5EBC50000EB400204F1280000EB8200B2
:1042E00080F83510C5EBC50000EB400204F1280052
:1042F00000EB820080F83610C5EBC50000EB4002F1
:1043000004F1280000EB82008163C5EBC50000EBDF
:10431000400204F1280000EB8200C163C5EBC50038
:1043200000EB400204F1280000EB820080F840100E
:10433000C5EBC50000EB400204F1280000EB820051
:1043400080F84110C5EBC50000EB400204F12800E5
:1043500000EB820080F84210C5EBC50000EB400284
:1043600004F1280000EB820080F84B10C5EBC5007B
:1043700000EB400204F1280000EB82000165002000
:10438000BDE8F8837CB504460D4600200090034646
:104390000246294601902046FFF716FF00260BE053
:1043A0000021C5EBC50000EB400204F1280000EB42
:1043B000820014308155761C202EF1D30021C5EBEC
:1043C000C50000EB400204F1280000EB82004170C0
:1043D000C5EBC50000EB400204F1280000EB8200B1
:1043E00041607CBD2DE9FE43044688461646994649
:1043F00094F87C00052806D094F87C007F2802D031
:10440000FF20BDE8FE83B8F1010F13D16069058874
:1044100025B1A819A1690988884201DDFF20F0E7CC
:10442000A919606850F83100806A008880B2ADF840
:10443000000012E06069458825B1A819A169498882
:10444000884201DDFF20DCE7A919606850F83100DF
:104450008069008880B2ADF8000000208DF802006D
:1044600008208DF80300002705E019F8071001A8BF
:10447000C155781CC7B2082FF7DB6946D4F8E401B0
:1044800004F0CAF9BDE72DE9FC4706460F46904601
:104490001D46DDE90A9480208DF80000E8B28DF811
:1044A0000100280A8DF802008DF80390E0B28DF823
:1044B0000400200A8DF80500200C8DF80600200E5F
:1044C0008DF807006B46424639463046FFF78AFFB3
:1044D00082465046BDE8FC872DE9FC4104460D4666
:1044E0006069468866B1C5EBC50000EB400104F188
:1044F000280010F821003044A1694988884201DD74
:10450000BDE8FC81C5EBC50000EB400204F12800CA
:1045100010F822003044616851F83000806B077851
:104520004FF0FF31C5EBC50000EB400204F128005D
:1045300000EB8200A0F84C108521C5EBC50000EB14
:10454000400204F1280000EB820081702749C5EB8E
:10455000C50000EB400204F1280000EB8200807AE5
:10456000CDE90001C5EBC50000EB400C04F12800CB
:1045700000EB8C000389C5EBC50000EB400C04F197
:10458000280010F82C20C5EBC50000EB400C04F10E
:10459000280000EB8C0041782046FFF774FF134998
:1045A000C5EBC50000EB400204F1280000EB8200DF
:1045B0004160C5EBC50000EB400104F1280000EBB1
:1045C0008100006D58B1C5EBC50000EB400104F15E
:1045D000280000EB81003946026D20469047C5EB6C
:1045E000C50005E0C0C62D00D94400080000040540
:1045F00000EB400104F1280000EB81004068FE4917
:10460000884203D1E9B22046FFF7BCFE00BF77E73E
:1046100070B50546002405E021462846FFF7B2FEA6
:10462000601CC4B2012CF7DB70BD2DE9FF410446CC
:104630000D46C5EBC50000EB400104F1280000EB7E
:104640008100C06888B9C5EBC50000EB400104F1EA
:10465000280000EB81000169C5EBC50000EB4002BA
:1046600004F1280000EB8200C160C5EBC50000EB3F
:10467000400104F1280000EB8100C0680390012094
:1046800003AACDE900200290C5EBC50000EB40076E
:1046900004F1280000EB870000F11403C5EBC5000E
:1046A00000EB400704F1280000EB8700827AC5EB9D
:1046B000C50000EB400704F1280000EB87000189EA
:1046C0002046FEF7ACFE06461EB1304604B0BDE8FB
:1046D000F0810020FAE7F0B587B004460D462020AF
:1046E0000690012005AA06ABCDE9012000930390B6
:1046F000C5EBC50000EB400704F1280000EB870084
:1047000000F11403C5EBC50000EB400704F12800DD
:1047100000EB8700827AC5EBC50000EB400704F18F
:10472000280000EB870001892046FEF708FE0646B8
:1047300016B1304607B0F0BDC5EBC50000EB400236
:1047400004F1280000EB82000699C1600021C5EB4E
:10475000C50000EB400204F1280000EB820001617B
:104760000020E7E7F0B504461D46C1EBC10000EBB1
:10477000400704F1280000EB87000069104420285E
:1047800001D9FF20F0BDC1EBC10000EB400704F1EF
:10479000280000EB870000698718C1EBC10000EB1F
:1047A000400C04F1280000EB8C00C068874201D95E
:1047B000FF20E7E7C1EBC10000EB400704F1280050
:1047C00000EB8700066900230DE0C1EBC10000EBA0
:1047D000400704F1280000EB87001430F718C05D93
:1047E000E854581CC3B29342EFD3C1EBC10000EBB5
:1047F000400704F1280000EB870000698718C1EB2F
:10480000C10000EB400C04F1280000EB8C000761B4
:104810000020B7E7F0B504461546C1EBC10000EB38
:10482000400704F1280000EB870000692844202895
:1048300001D9FF20F0BDC1EBC10000EB400704F13E
:10484000280000EB8700066900220FE09F5CC1EBA7
:10485000C10000EB400C04F1280000EB8C00143088
:1048600006EB020C00F80C70501CC2B2AA42EDD349
:10487000C1EBC10000EB400704F1280000EB87000A
:1048800000694719C1EBC10000EB400C04F128009E
:1048900000EB8C0007610020CCE770B504460D46A4
:1048A00000212FE0C1EBC10000EB400604F128001D
:1048B00000EB8600807818B3C1EBC10000EB400626
:1048C00004F1280000EB86008078852818D0C1EB21
:1048D000C10000EB400604F1280010F82600A842B1
:1048E0000ED1C1EBC10000EB400604F1280000EB43
:1048F00086004078904203D103B11970002070BD4A
:10490000481CC1B20129CDDBFF20F8E72DE9FE4F9D
:1049100004460F4615469946DDE90CA802AB2A4627
:1049200039462046FFF7B9FF064636B9012D04D1B6
:104930009DF808102046FFF725FD9EBB022D31D1C2
:104940009DF80810C1EBC10101EB410204F12801FF
:1049500001EB8201B1F94C0003F03AFE9DF808101A
:10496000C1EBC10101EB410204F1280101EB82011D
:10497000A1F84C0085219DF80800C0EBC00000EBB9
:10498000400204F1280000EB820081709DF80800CD
:10499000C0EBC00000EB400104F1280000EB8100F7
:1049A000C0F804804B463A4629462046CDE900A887
:1049B000FFF769FD064616B1FF20BDE8FE8F002017
:1049C000FBE730B503460C46002119E0C1EBC100FE
:1049D00000EB400503F1280000EB8500807868B902
:1049E0001170C1EBC10000EB400503F1280000EBA2
:1049F00085004470002030BD00000405481CC1B291
:104A00000129E3DBFF20F6E770B504460D460021DF
:104A100024E0C1EBC10000EB400604F1280000EBEC
:104A200086008078C0B1C1EBC10000EB400604F104
:104A3000280010F82600A8420ED1C1EBC10000EBFF
:104A4000400604F1280000EB86004078904203D134
:104A500003B11970002070BD481CC1B20129D8DB18
:104A6000FF20F8E7F0B502460C4600265069418861
:104A70009069478809B9FF20F0BD002314E0506811
:104A800000EBC1000079032801DCFF20F4E7506847
:104A900050F83100806B0578A54201D1012605E070
:104AA000481C81B2581CC3B2B942E8DD00BF0EB940
:104AB000FE20E1E71846DFE72DE9F84306460F46FA
:104AC000904639463046FFF7CDFF0546FE2D02DB06
:104AD0008520BDE8F8836B46424629463046FFF7FD
:104AE00093FF04460CB1FF20F3E79DF80010304619
:104AF000FFF748FC0020ECE730B50346C1EBC100EE
:104B000000EB400403F1280000EB8400C06810B9FA
:104B10000020106013E0C1EBC10000EB400403F182
:104B2000280000EB8400C468C1EBC10000EB400525
:104B300003F1280000EB85000069201A10600020B6
:104B400030BD10B50346202A01D9FF2010BDC1EBAE
:104B5000C10000EB400403F1280000EB8400C260B8
:104B60000020F3E703B599B00020169014900320BD
:104B70001290002009900320129019984069008833
:104B80000890199880690088079000200A9008987A
:104B9000002832D02CE019984168089801EBC00039
:104BA0000079012806DCF6A1FDA003F03BFFFF2001
:104BB0001BB000BD19984168089851F83000806911
:104BC0000990099801681A980088814208D101204B
:104BD0001290F5A1F2A003F025FF0A9813900BE0C4
:104BE0000A98401CC0B20A900898401C80B20890F5
:104BF000DDE907108842CEDD00BF1298032846D1B8
:104C000019984069408808901998806940880790F1
:104C100000200A900898002839D033E0199841689C
:104C2000089801EBC0000079032805DCE3A1DCA0B3
:104C300003F0F8FEFF20BBE719984168089851F887
:104C40003000806A0990099801681A9800888142AA
:104C500010D102201290DEA1D1A003F0E3FE0A9849
:104C6000139019984168089851F83000806B0078CB
:104C700014900BE00A98401CC0B20A900898401C9F
:104C800080B20890DDE907108842C7DD00BF1298A6
:104C9000032801D1FF208BE71A98C078082810D08C
:104CA000D0A1BFA003F0BEFE4FF00061002003467C
:104CB000CDE90001DDE912211998FFF727FEFF2059
:104CC00076E716ABDDE912211998FFF7E6FD18909B
:104CD000FF201790189828BB129801280CD19DF836
:104CE0005800C0EBC00000EB40011998283000EBE1
:104CF0008100807804280FD01298022815D19DF8E1
:104D00005800C0EBC00000EB40011998283000EBC0
:104D100081008078052808D11A980079802802D16E
:104D20000420179001E0062017901798FF2803D160
:104D30001A980079401117901798072882F0DC84A0
:104D4000DFE810F00700A8020D0509077C09EA0951
:104D5000EA0E129801287CD1189880B99DF8580065
:104D6000C0EBC00000EB40011998283000EB810037
:104D70008078022801D0012000E0002018901898C7
:104D800058B19C4800210B46CDE90010DDE9122105
:104D90001998FFF7BBFDFF200AE79DF85800C0EB0C
:104DA000C00000EB40011998283000EB8100B0F9F9
:104DB0004C00401C90B39DF85800C0EBC00000EBC5
:104DC00040011998283000EB8100B0F94C000290A6
:104DD00003F0FEFB01469DF85800C0EBC00000EB5D
:104DE00040021998283000EB8200A0F84C100020F7
:104DF000814BAFF61B1200909DF85810199803F0E4
:104E000093FB01469DF85800C0EBC00000EB400248
:104E10001998283000EB8200A0F84C109DF858003B
:104E2000C0EBC00000EB40011998283000EB810076
:104E300000890E909DF85800C0EBC00000EB4001C7
:104E40001998283000EB8100807A0D909DF8580069
:104E500000E0DBE0C0EBC00000EB40011998283017
:104E600000EB8100C1781A980079C0F300108142EC
:104E70000BD062490D98CDE900010E9BDDE91221AE
:104E80001998FFF743FDFF2092E61A980079C0F3C6
:104E90004200C0F1070015901A98431D9DF8581064
:104EA000159A1998FFF7B6FC1890189860B14FF052
:104EB00000610D98CDE900010E9BDDE912211998E2
:104EC000FFF724FDFF2073E69DF85800C0EBC000FB
:104ED00000EB40011998283000EB8100C0782021B8
:104EE00041EA0010C0B28DF83C0001200B9006E0B2
:104EF00000210FAA0B9811540B98401C0B900B9893
:104F00000828F5D30FABDDE912121998FFF76AFAFA
:104F10009DF85800C0EBC00000EB40011998283004
:104F200000EB8100C07808B9012000E0002000F00B
:104F300001019DF85800C0EBC00000EB4002199839
:104F4000283000EB8200C1701A98007900F001004F
:104F500000285AD09DF858101998FFF766FB119059
:104F6000119858B111990D98CDE900010E9BDDE91A
:104F700012211998FFF7CAFCFF2019E640E0000053
:104F8000537562696E646578203120206E6F7420DD
:104F9000666F756E6420617420696E6465780000C8
:104FA00025732F6E000000004920616D207365722B
:104FB0007665722E20696E64657800006E6F7420CD
:104FC000666F756E6420617420696E646578200078
:104FD0004920616D20636C69656E7420696E64653B
:104FE000782000004572726F722073697A652053D1
:104FF000444F000021000008C0C62D00000003053A
:105000009DF858101998FFF7BDF941E1189880B93B
:105010009DF85800C0EBC00000EB40011998283003
:1050200000EB81008078032801D0012000E00020FF
:105030001890189858B1F84900200346CDE90001AE
:10504000DDE912211998FFF761FCFF20B0E59DF81A
:105050005800C0EBC00000EB40011998283000EB6D
:105060008100B0F94C00401C90B39DF85800C0EB93
:10507000C00000EB40011998283000EB8100B0F926
:105080004C00029003F0A4FA01469DF85800C0EBD2
:10509000C00000EB40021998283000EB8200A0F815
:1050A0004C100020DD4BAFF6CF3200909DF8581029
:1050B000199803F039FA01469DF85800C0EBC0007A
:1050C00000EB40021998283000EB8200A0F84C1049
:1050D0009DF85800C0EBC00000EB40011998283043
:1050E00000EB810000890E909DF85800C0EBC000D5
:1050F00000EB40011998283000EB8100807A0D9078
:105100009DF85800C0EBC00000EB40011998283012
:1051100000EB8100C1781A980079C0F30010814239
:105120000BD0BF490D98CDE900010E9BDDE912219E
:105130001998FFF7EBFBFF203AE51A980079C0F3C6
:105140004200C0F1070015901A98431D9DF85810B1
:10515000159A1998FFF75EFB1890189860B14FF0F8
:1051600000610D98CDE900010E9BDDE9122119982F
:10517000FFF7CCFBFF201BE59DF85800C0EBC000FB
:1051800000EB40011998283000EB8100C07808B985
:10519000012000E0002000F001019DF85800C0EB64
:1051A000C00000EB40021998283000EB8200C1706B
:1051B0001A98007900F00100F0B39DF85800C0EB98
:1051C000C00000EB40011998283000EB8100B0F9D5
:1051D0004C00029003F0FCF901469DF85800C0EB2A
:1051E000C00000EB40021998283000EB8200A0F8C4
:1051F0004C1001219DF85800C0EBC00000EB4002AC
:105200001998283000EB820081709DF85800C0EB9F
:10521000C00000EB40011998283000EB8100006DC0
:10522000B0B39DF85800C0EBC00000EB40011998E6
:10523000283000EB810000E006E0006D0290029A49
:1052400014991998904723E09DF85800C0EBC000CE
:1052500000EB40011998283000EB8100C0786021F4
:1052600041EA0010C0B28DF83C0001200B9006E02E
:1052700000210FAA0B9811540B98401C0B900B980F
:105280000828F5D30FABDDE912121998FFF7AAF839
:1052900002F061BA1298012878D11A984179807980
:1052A00041EA00200E901A98C0790D90189858B9CC
:1052B00059490D98CDE900010E9BDDE9122119989D
:1052C000FFF724FBFF2073E416AA12991998FFF741
:1052D00078FB1890189858B14F490D98CDE9000106
:1052E0000E9BDDE912211998FFF710FBFF205FE408
:1052F00002210D98CDE900019DF858100E9B139ADC
:105300001998FEF761FF1A980079C0F34000E0B3E6
:105310001A980079C0F38100C0F1040015909DF83F
:105320005800C0EBC00000EB40021998283000EB99
:1053300082001599C1601A9800F108039DF8581071
:10534000159A1998FFF766FA1890189860B14FF0FF
:1053500000610D98CDE900010E9BDDE9122119983D
:10536000FFF7D4FAFF2023E49DF858101998FFF7AF
:105370005CF91190119870B111990D98CDE9000167
:105380000E9BDDE91221199801E00AE05BE0FFF7CE
:10539000BDFAFF200CE49DF858101998FEF7F2FFB3
:1053A00028E01A98007900F0010018B31A98017AE1
:1053B000407A01EB00211A98807A01EB00411A989B
:1053C000C07A01EB006015909DF85810159A199855
:1053D000FFF7B7FB1890189860B14FF000610D9877
:1053E000CDE900010E9BDDE912211998FFF78EFA35
:1053F000FF2020E460208DF83C000E98C0B28DF8AC
:105400003D000E98000A8DF83E000D988DF83F0083
:1054100004200B900DE0000021000008C0C62D0004
:105420000000030500210FAA0B9811540B98401C93
:105430000B900B980828F5D30FABDDE912121998E1
:10544000FEF7D0FF8AE1189880B99DF85800C0EBAC
:10545000C00000EB40011998283000EB81008078F3
:10546000022801D0012000E000201890189858B1BF
:10547000F84900200346CDE90001DDE91221199821
:10548000FFF744FAFF2006E49DF85800C0EBC00087
:1054900000EB40011998283000EB8100B0F94C0076
:1054A000401C88B39DF85800C0EBC00000EB4001E1
:1054B0001998283000EB8100B0F94C00029003F0FD
:1054C00087F801469DF85800C0EBC00000EB400291
:1054D0001998283000EB8200A0F84C100020DE4B19
:1054E000DE4A00909DF85810199803F01DF8014607
:1054F0009DF85800C0EBC00000EB4002199828301E
:1055000000EB8200A0F84C109DF85800C0EBC000E2
:1055100000EB40011998283000EB810000890E90C3
:105520009DF85800C0EBC00000EB400119982830EE
:1055300000EB8100807A0D909DF85800C0EBC00010
:1055400000EB40011998283000EB8100C1781A98CF
:105550000079C0F3001081420BD0C1490D98CDE90C
:1055600000010E9BDDE912211998FFF7CFF9FF200A
:1055700012E415AA9DF858101998FFF7BDFA15986E
:10558000F0BB9DF85800C0EBC00000EB400119983B
:10559000283000EB8100B0F94C00029003F018F8BD
:1055A00001469DF85800C0EBC00000EB400219987E
:1055B000283000EB8200A0F84C1001219DF8580023
:1055C000C0EBC00000EB40021998283000EB8200CD
:1055D00081709DF85800C0EBC00000EB40011998A5
:1055E000283000EB8100006D88B19DF85800C0EBB9
:1055F000C00000EB40011998283000EB810000E06A
:1056000007E0006D0290029A1499199890470020C3
:105610003AE41598072842D99DF85800C0EBC0001D
:1056200000EB40011998283000EB8100C07808B9E0
:10563000012000E0002000F001019DF85800C0EBBF
:10564000C00000EB40021998283000EB8200C170C6
:105650009DF85800C0EBC00000EB400119982830BD
:1056600000EB8100C0780007000E8DF83C000DF1C2
:105670003D0307229DF858101998FFF773F818900A
:105680001898E0B34FF000610D98CDE900010E9B32
:10569000DDE912211998FFF739F9FF2013E49DF88D
:1056A0005800C0EBC00000EB40011998283000EB17
:1056B0008100C07808B9012000E0002000F001015D
:1056C0009DF85800C0EBC00000EB4002199828304C
:1056D00000EB8200C1709DF85800C0EBC00000EBE9
:1056E00040011998283000EB8100C078010115981D
:1056F000C0F1070041EA4000401CC0B200E027E0D2
:105700008DF83C000DF13D039DF85810159A19983D
:10571000FFF728F81890189860B14FF000610D98C5
:10572000CDE900010E9BDDE912211998FFF7EEF893
:10573000FF2022E41598401C0B9006E000210FAAE0
:105740000B9811540B98401C0B900B980828F5D31C
:105750000FABDDE912121998FEF744FE98E5129896
:1057600001287FD11A984179807941EA00200E9072
:105770001A98C0790D90189858B936490D98CDE906
:1057800000010E9BDDE912211998FFF7BFF8FF20F9
:105790005CE416AA12991998FFF713F91890189853
:1057A00058B12C490D98CDE900010E9BDDE912217D
:1057B0001998FFF7ABF8FF2048E403210D98CDE9D5
:1057C00000019DF858100E9B139A1998FEF7FCFCE7
:1057D0009DF858101998FEF77EFF1190119858B156
:1057E00011990D98CDE900010E9BDDE91221199860
:1057F000FFF78CF8FF2029E415AA9DF85810199896
:10580000FFF77AF9159804282DD941208DF83C002E
:105810000E98C0B28DF83D000E98000A8DF83E003B
:105820000D988DF83F001598C0B28DF8400015987E
:10583000000A8DF841001598000C8DF8420015986B
:10584000000E8DF843000FABDDE912121998FEF738
:10585000C9FD7FE121000008C0C62D00D944000821
:105860000000030545E01598C0F10400402141EA1D
:105870008000C01CC0B28DF83C000E98C0B28DF8FC
:105880003D000E98000A8DF83E000D988DF83F00FF
:1058900010AB9DF85810159A1998FEF763FF1890F1
:1058A000189860B14FF000610D98CDE900010E9B92
:1058B000DDE912211998FFF729F8FF203CE415983B
:1058C000001D0B9006E000210FAA0B9811540B98B5
:1058D000401C0B900B980828F5D30FABDDE9121292
:1058E0001998FEF77FFD9DF858101998FEF74AFDAC
:1058F00030E1189880B99DF85800C0EBC00000EB6B
:1059000040011998283000EB81008078032801D0ED
:10591000012000E000201890189858B1FA480021A2
:105920000B46CDE90010DDE912211998FEF7EEFFD4
:10593000FF2020E49DF85800C0EBC00000EB4001C0
:105940001998283000EB8100B0F94C00401C88B356
:105950009DF85800C0EBC00000EB400119982830BA
:1059600000EB8100B0F94C00029002F031FE0146DC
:105970009DF85800C0EBC00000EB40021998283099
:1059800000EB8200A0F84C100020E04BE04A0090B1
:105990009DF85810199802F0C7FD01469DF858006F
:1059A000C0EBC00000EB40021998283000EB8200E9
:1059B000A0F84C109DF85800C0EBC00000EB40016F
:1059C0001998283000EB810000890E909DF858004E
:1059D000C0EBC00000EB40011998283000EB8100BB
:1059E000807A0D901A980079C0F34000F0B31A98AD
:1059F0000079C0F38100C0F1040015901A9800F1FD
:105A000008039DF85810159A1998FEF703FF18908F
:105A1000189860B14FF000610D98CDE900010E9B20
:105A2000DDE912211998FEF771FFFF204BE49DF884
:105A30005800C0EBC00000EB40011998283000EB83
:105A40008100B0F94C00029002F0C2FD01469DF8C1
:105A50005800C0EBC00000EB40021998283000EB62
:105A60008200A0F84C109DF8580000E033E0C0EB35
:105A7000C00000EB40021998283000EB8200159915
:105A8000C16001219DF85800C0EBC00000EB40024E
:105A90001998283000EB820081709DF85800C0EB07
:105AA000C00000EB40011998283000EB8100006D28
:105AB00078B19DF85800C0EBC00000EB4001199888
:105AC000283000EB8100006D0290029A1499199819
:105AD000904700200BE41A98007900F0010018B3F9
